:020000020000FC
:040000000C9422003A
:040010000C94440404
:100040000C9458040FEF0DBF18E01EBF00E800939A
:10005000610001E0009361000E94690403EC07B9AC
:100060001CE318B90FEF04B910E015B90FEF10E059
:100070000AB91BB900E00093C10002E000936800D8
:1000800004E000936C0001E000936E000024112452
:100090002224332444245524662477248824992454
:1000A000AA2400271127222733274427552766270C
:1000B000772788279927AA27BB27CC27DD27EE2774
:1000C00001E0A02E00E0B02E01E0C02E00E0D02E16
:1000D00001E0F02E78942D9801E0E02E062D0030FE
:1000E000D9F0013051F1023051F1033051F10430B7
:1000F00051F10C946E00F921BAAB63CBDBA1FBEBA1
:10010000052D0130B1F0AC33B1F0062D003049F0CF
:10011000013001F10C946E00419840982C9A0C9497
:100120008000062D0030D1F60E2D003071F00C94B9
:100130008C000C9412030C94BF030C94A7000C9435
:100140003D010C9451010C9476020C94F902409AF2
:100150000C948000013011F6339B0C94BB00349B4F
:100160000C94C700359B0C940A0122270E2D0030F9
:1001700061F30C94A70033990C94A7009394092D74
:10018000023010F40C94A70099240C94A70020309E
:10019000F1F62395092D003021F00130D1F00C94B7
:1001A000A7000394002D112D0A3020F4163030F4EE
:1001B0000C94A700002413940C94A700002411248D
:1001C0000C94A700222433240C94A70000240C9440
:1001D000A7002394022D132D0A30C0F4123011F021
:1001E0000C94A700043010F40C94A70022243324AC
:1001F000A3940A2D0A3011F00C94A700AA24B394FA
:100200000B2D0A3001F0BB240C946E002224339491
:100210000C94A700203079F52395092D003029F0A2
:100220000130A9F002300C94A700002D112D0030F0
:1002300019F00A940C943B0109E0002E103019F0DB
:100240001A940C943B0115E0112E0C943B01022DE5
:10025000132D003019F02A940C943B0109E0202E54
:10026000103019F03A940C943B0103E012E0202E78
:10027000312E0C943B010C94A70099242C984098A3
:10028000419A062D023039F4AC3339F0052D013096
:1002900031F00C943D010C946E000C94BF030C944F
:1002A0001203409A062D0330B1F7AC33B1F3052D9C
:1002B0000130A9F3339B0C946C02349B0C946601BF
:1002C000359B0C94D40122270C945101203049F71E
:1002D0002395092D003031F0013011F00C945101BB
:1002E0000C94BD013F2D313091F13230B1F03330FB
:1002F00071F13430F9F0353051F13630D9F0373012
:1003000031F1383021F13930A9F03A3001F13B3088
:1003100089F03C30E1F00C945101A3940A2D0A308D
:1003200041F1093010F40C946E000B2D0230E1F015
:100330000C945101A3940A2D0A30D9F0013010F425
:100340000C9451010B2D033078F40C945101A394BB
:100350000A2D0A3071F0023010F40C9451010B2D6B
:10036000033011F00C94510101E0A02EBB240C9439
:100370005101AA24B3940C945101F394C3940C2D0D
:100380000A3021F0033031F00C945101CC24D39485
:100390000C9451010D2D013011F00C94510101E02C
:1003A000C02EDD240C945101203041F42395092DF9
:1003B000003041F0013021F00C9451010C945101B6
:1003C0000C944E023F2D3130E1F03230B1F0333039
:1003D000C1F03430A1F03530A1F0363081F0373043
:1003E00081F0383071F0393051F03A3051F03B3013
:1003F00031F03C30D1F10C9451010C9403020C9477
:100400001C020C9435020A2D003059F0013019F00D
:10041000AA940C9451010B2D003041F0AA940C9435
:100420005101BA9409E0A02E0C94510108E0A02ECD
:1004300002E0B02E0C9451010A2D003059F0013029
:1004400019F0AA940C9451010B2D003041F0AA949C
:100450000C945101BA9409E0A02E0C94510100E0D3
:10046000A02E03E0B02E0C9451010A2D003059F05B
:10047000013019F0AA940C9451010B2D003041F079
:10048000AA940C945101BA9409E0A02E0C94510145
:1004900001E0A02E03E0B02E0C9451010C2D1D2D77
:1004A000003031F0013051F0CA94FA940C945101AB
:1004B00009E0C02EDA94FA940C945101103021F026
:1004C000CA94FA940C9451010CE0F02E02E0C02E74
:1004D00001E0D02E0C9451019394092D023020F4A8
:1004E0000C9451010C9472020C94C4002C9A2D9817
:1004F000062D043089F4052D013081F0AC3381F0F4
:10050000339B0C949202349B0C949B02359B0C946D
:10051000D10222270C9476020C946E000C94990060
:100520000C94BF039394092D023010F40C947602BE
:1005300099240C9476022030C9F62395092D0030B9
:1005400029F0092D0130C1F00C94760263956A30D0
:1005500010F40C9476026627753019F073950C949C
:100560007602662777270C947602882799270C94C1
:10057000760266270C94760283958A3060F4923076
:1005800011F00C947602843010F40C9476028827D3
:1005900099270C947602882793950C9476020C94F4
:1005A00076022030E1F72395092D003029F0013043
:1005B00089F002300C94A300603019F06A950C9415
:1005C000A30069E0703019F07A950C94A30075E0EF
:1005D0000C94A300803019F08A950C94A30089E054
:1005E000903019F09A950C94A30083E092E00C945B
:1005F000A300002D061711F00C946E00012D0717B3
:1006000011F00C946E00022D081711F00C946E007E
:10061000032D091711F00C946E002D9A01E0E02EC5
:100620000C946E0055247394072D013041F0023074
:1006300099F00330F1F0043049F10C946E002B98DE
:10064000289A162D103081F1113071F11230A1F17C
:10065000133091F11430C1F128982A9A162D1030D8
:1006600039F1113029F1123059F1133049F11430B8
:1006700079F12A98299A162D1030C1F01130B1F075
:100680001230E1F01330D1F0143001F177242998C1
:100690002B9A162D103071F0113061F0123091F05C
:1006A000133081F01430B1F00C946F030C94760386
:1006B0000C947D030C9484030C948B030C94920390
:1006C0000C9499030C94A0030C94A7030C94AD0311
:1006D0000C94B3030C94B9034BB90C946E00002D29
:1006E000F0E0E6EFE00F44910C946C03012DF0E094
:1006F000E6EFE00F44910C946C03022DF0E0E6EF7E
:10070000E00F44910C946C03032DF0E0E6EFE00F52
:1007100044910C946C030A2DF0E0E6EFE00F449155
:100720000C946C030B2DF0E0E6EFE00F44910C9479
:100730006C030C2DF0E0E6EFE00F44910C946C0399
:100740000D2DF0E0E6EFE00F44910C946C03F0E027
:10075000E6EFE60F44910C946C03F0E0E6EFE70F50
:1007600044910C946C03F0E0E6EFE80F44910C9494
:100770006C03F0E0E6EFE90F44910C946C03AA27B8
:100780000394EE24002D0A3010F40C946E00002423
:100790001394012D063010F40C946E001124239450
:1007A000022D043041F00A3010F40C946E00222423
:1007B00033940C946E00032D023010F40C946E00F0
:1007C000222433243F2D3130C1F13230C1F0333097
:1007D000A1F1343029F1353081F1363009F137306B
:1007E00061F1383051F13930D9F03A3031F13B30E4
:1007F000B9F03C3011F10C946E000C946E00A3948F
:100800000A2D0A3048F4093010F40C946E000B2DB8
:10081000023000F50C946E00AA24B3940C946E0080
:10082000A3940A2D0A30C0F7013010F40C946E0026
:100830000B2D033078F40C946E00A3940A2D0A302B
:1008400059F3023011F00C946E000B2D033011F0AF
:100850000C946E0001E0A02EBB24C394F3945527A2
:100860000C2D0A3029F00F2D0D3039F00C946E004C
:1008700001E0C02ED3940C946E0001E0C02E01E084
:100880000F2DDD240C946E000F930FB70F93329B46
:100890000C944C040C94540463949924062D053054
:1008A00011F00C94540466240F910FBF0F9118950A
:1008B0000F930FB70F930AED06BD43945394042D85
:1008C000083C11F00C9454044424A3950C94540453
:0C08D000189505E005BD0AED06BD089571
:00000001FF
